{
    "_format": "hh-sol-artifact-1",
    "contractName": "BeonirkPoolFactory",
    "sourceName": "contracts/BeonirkPoolFactory.sol",
    "abi": [
        {
            "inputs": [],
            "stateMutability": "nonpayable",
            "type": "constructor"
        },
        {
            "anonymous": false,
            "inputs": [
                {
                    "indexed": true,
                    "internalType": "address",
                    "name": "token1",
                    "type": "address"
                },
                {
                    "indexed": true,
                    "internalType": "address",
                    "name": "token2",
                    "type": "address"
                },
                {
                    "indexed": false,
                    "internalType": "address",
                    "name": "LPoolAddress",
                    "type": "address"
                }
            ],
            "name": "poolCreated",
            "type": "event"
        },
        {
            "inputs": [],
            "name": "Admin",
            "outputs": [
                {
                    "internalType": "address",
                    "name": "",
                    "type": "address"
                }
            ],
            "stateMutability": "view",
            "type": "function"
        },
        {
            "inputs": [
                {
                    "internalType": "address",
                    "name": "_tokenA",
                    "type": "address"
                },
                {
                    "internalType": "address",
                    "name": "_tokenB",
                    "type": "address"
                },
                {
                    "internalType": "uint256",
                    "name": "initialA",
                    "type": "uint256"
                },
                {
                    "internalType": "uint256",
                    "name": "initialB",
                    "type": "uint256"
                }
            ],
            "name": "createPool",
            "outputs": [
                {
                    "internalType": "address",
                    "name": "poolAddress",
                    "type": "address"
                }
            ],
            "stateMutability": "nonpayable",
            "type": "function"
        },
        {
            "inputs": [
                {
                    "internalType": "uint256",
                    "name": "",
                    "type": "uint256"
                }
            ],
            "name": "createdPools",
            "outputs": [
                {
                    "internalType": "address",
                    "name": "",
                    "type": "address"
                }
            ],
            "stateMutability": "view",
            "type": "function"
        },
        {
            "inputs": [
                {
                    "internalType": "address",
                    "name": "_tokenA",
                    "type": "address"
                },
                {
                    "internalType": "address",
                    "name": "_tokenB",
                    "type": "address"
                }
            ],
            "name": "getPool",
            "outputs": [
                {
                    "internalType": "address",
                    "name": "poolAddress",
                    "type": "address"
                }
            ],
            "stateMutability": "view",
            "type": "function"
        },
        {
            "inputs": [
                {
                    "internalType": "address",
                    "name": "tokenA",
                    "type": "address"
                },
                {
                    "internalType": "address",
                    "name": "tokenB",
                    "type": "address"
                }
            ],
            "name": "isPool",
            "outputs": [
                {
                    "internalType": "bool",
                    "name": "",
                    "type": "bool"
                }
            ],
            "stateMutability": "view",
            "type": "function"
        },
        {
            "inputs": [],
            "name": "numberOfPools",
            "outputs": [
                {
                    "internalType": "uint256",
                    "name": "num",
                    "type": "uint256"
                }
            ],
            "stateMutability": "view",
            "type": "function"
        },
        {
            "inputs": [
                {
                    "internalType": "address",
                    "name": "",
                    "type": "address"
                },
                {
                    "internalType": "address",
                    "name": "",
                    "type": "address"
                }
            ],
            "name": "pools",
            "outputs": [
                {
                    "internalType": "address",
                    "name": "",
                    "type": "address"
                }
            ],
            "stateMutability": "view",
            "type": "function"
        }
    ],
    "bytecode": "0x608060405234801561001057600080fd5b50336000806101000a81548173ffffffffffffffffffffffffffffffffffffffff021916908373ffffffffffffffffffffffffffffffffffffffff1602179055506154d0806100606000396000f3fe60806040523480156200001157600080fd5b5060043610620000885760003560e01c8063884db0631162000063578063884db063146200011b578063901754d71462000151578063d26273831462000187578063ff1b636d14620001bd5762000088565b8063531aa03e146200008d5780636f682a5314620000c35780637b2cc0da14620000e5575b600080fd5b620000ab6004803603810190620000a5919062000d70565b620001df565b604051620000ba919062000dc8565b60405180910390f35b620000cd62000286565b604051620000dc919062000e00565b60405180910390f35b620001036004803603810190620000fd919062000d70565b62000293565b60405162000112919062000e3a565b60405180910390f35b62000139600480360381019062000133919062000e88565b62000369565b60405162000148919062000dc8565b60405180910390f35b6200016f600480360381019062000169919062000d70565b62000c52565b6040516200017e919062000dc8565b60405180910390f35b620001a560048036038101906200019f919062000efa565b62000c94565b604051620001b4919062000dc8565b60405180910390f35b620001c762000cd4565b604051620001d6919062000dc8565b60405180910390f35b6000600260008473ffffffffffffffffffffffffffffffffffffffff1673ffffffffffffffffffffffffffffffffffffffff16815260200190815260200160002060008373ffffffffffffffffffffffffffffffffffffffff1673ffffffffffffffffffffffffffffffffffffffff16815260200190815260200160002060009054906101000a900473ffffffffffffffffffffffffffffffffffffffff16905092915050565b6000600180549050905090565b60008073ffffffffffffffffffffffffffffffffffffffff16600260008573ffffffffffffffffffffffffffffffffffffffff1673ffffffffffffffffffffffffffffffffffffffff16815260200190815260200160002060008473ffffffffffffffffffffffffffffffffffffffff1673ffffffffffffffffffffffffffffffffffffffff16815260200190815260200160002060009054906101000a900473ffffffffffffffffffffffffffffffffffffffff1673ffffffffffffffffffffffffffffffffffffffff161415905092915050565b6000808590506000859050600073ffffffffffffffffffffffffffffffffffffffff168773ffffffffffffffffffffffffffffffffffffffff1603620003e6576040517f08c379a0000000000000000000000000000000000000000000000000000000008152600401620003dd9062000f8d565b60405180910390fd5b600073ffffffffffffffffffffffffffffffffffffffff168673ffffffffffffffffffffffffffffffffffffffff160362000458576040517f08c379a00000000000000000000000000000000000000000000000000000000081526004016200044f9062000f8d565b60405180910390fd5b8573ffffffffffffffffffffffffffffffffffffffff168773ffffffffffffffffffffffffffffffffffffffff1603620004c9576040517f08c379a0000000000000000000000000000000000000000000000000000000008152600401620004c09062000fff565b60405180910390fd5b620004d5878762000293565b1562000518576040517f08c379a00000000000000000000000000000000000000000000000000000000081526004016200050f9062001071565b60405180910390fd5b848273ffffffffffffffffffffffffffffffffffffffff166370a08231336040518263ffffffff1660e01b815260040162000554919062000dc8565b602060405180830381865afa15801562000572573d6000803e3d6000fd5b505050506040513d601f19601f82011682018060405250810190620005989190620010aa565b11620005db576040517f08c379a0000000000000000000000000000000000000000000000000000000008152600401620005d2906200112c565b60405180910390fd5b838173ffffffffffffffffffffffffffffffffffffffff166370a08231336040518263ffffffff1660e01b815260040162000617919062000dc8565b602060405180830381865afa15801562000635573d6000803e3d6000fd5b505050506040513d601f19601f820116820180604052508101906200065b9190620010aa565b116200069e576040517f08c379a000000000000000000000000000000000000000000000000000000000815260040162000695906200119e565b60405180910390fd5b838514620006e3576040517f08c379a0000000000000000000000000000000000000000000000000000000008152600401620006da9062001210565b60405180910390fd5b6000808773ffffffffffffffffffffffffffffffffffffffff168973ffffffffffffffffffffffffffffffffffffffff16106200072257878962000725565b88885b915091506000898989896040516200073d9062000cf8565b6200074c949392919062001232565b604051809103906000f08015801562000769573d6000803e3d6000fd5b5090508473ffffffffffffffffffffffffffffffffffffffff1663095ea7b3828a6040518363ffffffff1660e01b8152600401620007a99291906200127f565b6020604051808303816000875af1158015620007c9573d6000803e3d6000fd5b505050506040513d601f19601f82011682018060405250810190620007ef9190620012dd565b508373ffffffffffffffffffffffffffffffffffffffff1663095ea7b382896040518363ffffffff1660e01b81526004016200082d9291906200127f565b6020604051808303816000875af11580156200084d573d6000803e3d6000fd5b505050506040513d601f19601f82011682018060405250810190620008739190620012dd565b508473ffffffffffffffffffffffffffffffffffffffff166323b872dd33838b6040518463ffffffff1660e01b8152600401620008b3939291906200130f565b6020604051808303816000875af1158015620008d3573d6000803e3d6000fd5b505050506040513d601f19601f82011682018060405250810190620008f99190620012dd565b6200093b576040517f08c379a000000000000000000000000000000000000000000000000000000000815260040162000932906200139c565b60405180910390fd5b8373ffffffffffffffffffffffffffffffffffffffff166323b872dd33838a6040518463ffffffff1660e01b81526004016200097a939291906200130f565b6020604051808303816000875af11580156200099a573d6000803e3d6000fd5b505050506040513d601f19601f82011682018060405250810190620009c09190620012dd565b62000a02576040517f08c379a0000000000000000000000000000000000000000000000000000000008152600401620009f9906200140e565b60405180910390fd5b6001819080600181540180825580915050600190039060005260206000200160009091909190916101000a81548173ffffffffffffffffffffffffffffffffffffffff021916908373ffffffffffffffffffffffffffffffffffffffff16021790555080600260008573ffffffffffffffffffffffffffffffffffffffff1673ffffffffffffffffffffffffffffffffffffffff16815260200190815260200160002060008473ffffffffffffffffffffffffffffffffffffffff1673ffffffffffffffffffffffffffffffffffffffff16815260200190815260200160002060006101000a81548173ffffffffffffffffffffffffffffffffffffffff021916908373ffffffffffffffffffffffffffffffffffffffff16021790555080600260008473ffffffffffffffffffffffffffffffffffffffff1673ffffffffffffffffffffffffffffffffffffffff16815260200190815260200160002060008573ffffffffffffffffffffffffffffffffffffffff1673ffffffffffffffffffffffffffffffffffffffff16815260200190815260200160002060006101000a81548173ffffffffffffffffffffffffffffffffffffffff021916908373ffffffffffffffffffffffffffffffffffffffff1602179055508173ffffffffffffffffffffffffffffffffffffffff168373ffffffffffffffffffffffffffffffffffffffff167f1bfa76d353829689440900638fb4e4d604519997726fa1ee0f885e3df12ed7f88360405162000c3a919062000dc8565b60405180910390a38095505050505050949350505050565b60026020528160005260406000206020528060005260406000206000915091509054906101000a900473ffffffffffffffffffffffffffffffffffffffff1681565b6001818154811062000ca557600080fd5b906000526020600020016000915054906101000a900473ffffffffffffffffffffffffffffffffffffffff1681565b60008054906101000a900473ffffffffffffffffffffffffffffffffffffffff1681565b61406a806200143183390190565b600080fd5b600073ffffffffffffffffffffffffffffffffffffffff82169050919050565b600062000d388262000d0b565b9050919050565b62000d4a8162000d2b565b811462000d5657600080fd5b50565b60008135905062000d6a8162000d3f565b92915050565b6000806040838503121562000d8a5762000d8962000d06565b5b600062000d9a8582860162000d59565b925050602062000dad8582860162000d59565b9150509250929050565b62000dc28162000d2b565b82525050565b600060208201905062000ddf600083018462000db7565b92915050565b6000819050919050565b62000dfa8162000de5565b82525050565b600060208201905062000e17600083018462000def565b92915050565b60008115159050919050565b62000e348162000e1d565b82525050565b600060208201905062000e51600083018462000e29565b92915050565b62000e628162000de5565b811462000e6e57600080fd5b50565b60008135905062000e828162000e57565b92915050565b6000806000806080858703121562000ea55762000ea462000d06565b5b600062000eb58782880162000d59565b945050602062000ec88782880162000d59565b935050604062000edb8782880162000e71565b925050606062000eee8782880162000e71565b91505092959194509250565b60006020828403121562000f135762000f1262000d06565b5b600062000f238482850162000e71565b91505092915050565b600082825260208201905092915050565b7f746869732069732061207a65726f206164647265737300000000000000000000600082015250565b600062000f7560168362000f2c565b915062000f828262000f3d565b602082019050919050565b6000602082019050818103600083015262000fa88162000f66565b9050919050565b7f6475706c696361746520746f6b656e7300000000000000000000000000000000600082015250565b600062000fe760108362000f2c565b915062000ff48262000faf565b602082019050919050565b600060208201905081810360008301526200101a8162000fd8565b9050919050565b7f706f6f6c20616c72656164792065786973747300000000000000000000000000600082015250565b60006200105960138362000f2c565b9150620010668262001021565b602082019050919050565b600060208201905081810360008301526200108c816200104a565b9050919050565b600081519050620010a48162000e57565b92915050565b600060208284031215620010c357620010c262000d06565b5b6000620010d38482850162001093565b91505092915050565b7f6e6f7420656e6f75676820746f6b656e41000000000000000000000000000000600082015250565b60006200111460118362000f2c565b91506200112182620010dc565b602082019050919050565b60006020820190508181036000830152620011478162001105565b9050919050565b7f6e6f7420656e6f75676820746f6b656e42000000000000000000000000000000600082015250565b60006200118660118362000f2c565b915062001193826200114e565b602082019050919050565b60006020820190508181036000830152620011b98162001177565b9050919050565b7f6e6f7420657175616c0000000000000000000000000000000000000000000000600082015250565b6000620011f860098362000f2c565b91506200120582620011c0565b602082019050919050565b600060208201905081810360008301526200122b81620011e9565b9050919050565b600060808201905062001249600083018762000db7565b62001258602083018662000db7565b62001267604083018562000def565b62001276606083018462000def565b95945050505050565b600060408201905062001296600083018562000db7565b620012a5602083018462000def565b9392505050565b620012b78162000e1d565b8114620012c357600080fd5b50565b600081519050620012d781620012ac565b92915050565b600060208284031215620012f657620012f562000d06565b5b60006200130684828501620012c6565b91505092915050565b600060608201905062001326600083018662000db7565b62001335602083018562000db7565b62001344604083018462000def565b949350505050565b7f6661696c656420746f207472616e7366657220746f6b656e4100000000000000600082015250565b60006200138460198362000f2c565b915062001391826200134c565b602082019050919050565b60006020820190508181036000830152620013b78162001375565b9050919050565b7f6661696c656420746f207472616e7366657220746f6b656e4200000000000000600082015250565b6000620013f660198362000f2c565b91506200140382620013be565b602082019050919050565b600060208201905081810360008301526200142981620013e7565b905091905056fe60c06040523480156200001157600080fd5b506040516200406a3803806200406a833981810160405281019062000037919062000290565b6040518060400160405280600981526020017f706f6f6c546f6b656e00000000000000000000000000000000000000000000008152506040518060400160405280600381526020017f70746b00000000000000000000000000000000000000000000000000000000008152508160039081620000b4919062000572565b508060049081620000c6919062000572565b5050508373ffffffffffffffffffffffffffffffffffffffff1660808173ffffffffffffffffffffffffffffffffffffffff16815250508273ffffffffffffffffffffffffffffffffffffffff1660a08173ffffffffffffffffffffffffffffffffffffffff168152505081600560008673ffffffffffffffffffffffffffffffffffffffff1673ffffffffffffffffffffffffffffffffffffffff168152602001908152602001600020600082825462000182919062000688565b9250508190555080600560008573ffffffffffffffffffffffffffffffffffffffff1673ffffffffffffffffffffffffffffffffffffffff1681526020019081526020016000206000828254620001da919062000688565b9250508190555050505050620006c3565b600080fd5b600073ffffffffffffffffffffffffffffffffffffffff82169050919050565b60006200021d82620001f0565b9050919050565b6200022f8162000210565b81146200023b57600080fd5b50565b6000815190506200024f8162000224565b92915050565b6000819050919050565b6200026a8162000255565b81146200027657600080fd5b50565b6000815190506200028a816200025f565b92915050565b60008060008060808587031215620002ad57620002ac620001eb565b5b6000620002bd878288016200023e565b9450506020620002d0878288016200023e565b9350506040620002e38782880162000279565b9250506060620002f68782880162000279565b91505092959194509250565b600081519050919050565b7f4e487b7100000000000000000000000000000000000000000000000000000000600052604160045260246000fd5b7f4e487b7100000000000000000000000000000000000000000000000000000000600052602260045260246000fd5b600060028204905060018216806200038457607f821691505b6020821081036200039a57620003996200033c565b5b50919050565b60008190508160005260206000209050919050565b60006020601f8301049050919050565b600082821b905092915050565b600060088302620004047fffffffffffffffffffffffffffffffffffffffffffffffffffffffffffffffff82620003c5565b620004108683620003c5565b95508019841693508086168417925050509392505050565b6000819050919050565b6000620004536200044d620004478462000255565b62000428565b62000255565b9050919050565b6000819050919050565b6200046f8362000432565b620004876200047e826200045a565b848454620003d2565b825550505050565b600090565b6200049e6200048f565b620004ab81848462000464565b505050565b5b81811015620004d357620004c760008262000494565b600181019050620004b1565b5050565b601f8211156200052257620004ec81620003a0565b620004f784620003b5565b8101602085101562000507578190505b6200051f6200051685620003b5565b830182620004b0565b50505b505050565b600082821c905092915050565b6000620005476000198460080262000527565b1980831691505092915050565b600062000562838362000534565b9150826002028217905092915050565b6200057d8262000302565b67ffffffffffffffff8111156200059957620005986200030d565b5b620005a582546200036b565b620005b2828285620004d7565b600060209050601f831160018114620005ea5760008415620005d5578287015190505b620005e1858262000554565b86555062000651565b601f198416620005fa86620003a0565b60005b828110156200062457848901518255600182019150602085019450602081019050620005fd565b8683101562000644578489015162000640601f89168262000534565b8355505b6001600288020188555050505b505050505050565b7f4e487b7100000000000000000000000000000000000000000000000000000000600052601160045260246000fd5b6000620006958262000255565b9150620006a28362000255565b9250828201905080821115620006bd57620006bc62000659565b5b92915050565b60805160a0516138bd620007ad60003960008181610646015281816106aa015281816108fc01528181610a6e01528181610b8801528181610e2201528181610f9d015281816110a7015281816111e50152818161132501528181611441015281816114b8015281816115850152818161191801526119a70152600081816105bb015281816105e60152818161087b015281816109cf01528181610b1201528181610d4601528181610eff0152818161103d0152818161114601528181611284015281816113cb01528181611518015281816115f0015281816118c301526119fc01526138bd6000f3fe608060405234801561001057600080fd5b50600436106101375760003560e01c806370a08231116100b8578063a9059cbb1161007c578063a9059cbb14610367578063dbd9426714610397578063dd62ed3e146103c7578063df791e50146103f7578063e3d670d714610413578063e75179a41461044357610137565b806370a08231146102b157806395d89b41146102e15780639c8f9f23146102ff5780639cd441da1461031b578063a457c2d71461033757610137565b8063313ce567116100ff578063313ce56714610208578063395093511461022657806344c9d3331461025657806359bf5d39146102745780636be0a6ec1461029357610137565b806306fdde031461013c578063095ea7b31461015a5780630b65092d1461018a57806318160ddd146101ba57806323b872dd146101d8575b600080fd5b610144610473565b6040516101519190612769565b60405180910390f35b610174600480360381019061016f9190612824565b610505565b604051610181919061287f565b60405180910390f35b6101a4600480360381019061019f919061289a565b610528565b6040516101b191906128d6565b60405180910390f35b6101c2610540565b6040516101cf91906128d6565b60405180910390f35b6101f260048036038101906101ed91906128f1565b61054a565b6040516101ff919061287f565b60405180910390f35b610210610579565b60405161021d9190612960565b60405180910390f35b610240600480360381019061023b9190612824565b610582565b60405161024d919061287f565b60405180910390f35b61025e6105b9565b60405161026b919061298a565b60405180910390f35b61027c6105dd565b60405161028a9291906129a5565b60405180910390f35b61029b6106a8565b6040516102a8919061298a565b60405180910390f35b6102cb60048036038101906102c6919061289a565b6106cc565b6040516102d891906128d6565b60405180910390f35b6102e9610714565b6040516102f69190612769565b60405180910390f35b610319600480360381019061031491906129ce565b6107a6565b005b610335600480360381019061033091906129fb565b610c37565b005b610351600480360381019061034c9190612824565b61171a565b60405161035e919061287f565b60405180910390f35b610381600480360381019061037c9190612824565b611791565b60405161038e919061287f565b60405180910390f35b6103b160048036038101906103ac919061289a565b6117b4565b6040516103be91906128d6565b60405180910390f35b6103e160048036038101906103dc9190612a3b565b6117cc565b6040516103ee91906128d6565b60405180910390f35b610411600480360381019061040c91906128f1565b611853565b005b61042d6004803603810190610428919061289a565b611dc9565b60405161043a91906128d6565b60405180910390f35b61045d6004803603810190610458919061289a565b611de1565b60405161046a91906128d6565b60405180910390f35b60606003805461048290612aaa565b80601f01602080910402602001604051908101604052809291908181526020018280546104ae90612aaa565b80156104fb5780601f106104d0576101008083540402835291602001916104fb565b820191906000526020600020905b8154815290600101906020018083116104de57829003601f168201915b5050505050905090565b600080610510611df9565b905061051d818585611e01565b600191505092915050565b60086020528060005260406000206000915090505481565b6000600254905090565b600080610555611df9565b9050610562858285611fca565b61056d858585612056565b60019150509392505050565b60006012905090565b60008061058d611df9565b90506105ae81858561059f85896117cc565b6105a99190612b0a565b611e01565b600191505092915050565b7f000000000000000000000000000000000000000000000000000000000000000081565b600080600560007f000000000000000000000000000000000000000000000000000000000000000073ffffffffffffffffffffffffffffffffffffffff1673ffffffffffffffffffffffffffffffffffffffff16815260200190815260200160002054600560007f000000000000000000000000000000000000000000000000000000000000000073ffffffffffffffffffffffffffffffffffffffff1673ffffffffffffffffffffffffffffffffffffffff16815260200190815260200160002054915091509091565b7f000000000000000000000000000000000000000000000000000000000000000081565b60008060008373ffffffffffffffffffffffffffffffffffffffff1673ffffffffffffffffffffffffffffffffffffffff168152602001908152602001600020549050919050565b60606004805461072390612aaa565b80601f016020809104026020016040519081016040528092919081815260200182805461074f90612aaa565b801561079c5780601f106107715761010080835404028352916020019161079c565b820191906000526020600020905b81548152906001019060200180831161077f57829003601f168201915b5050505050905090565b80600860003373ffffffffffffffffffffffffffffffffffffffff1673ffffffffffffffffffffffffffffffffffffffff168152602001908152602001600020541015610828576040517f08c379a000000000000000000000000000000000000000000000000000000000815260040161081f90612b8a565b60405180910390fd5b6000811161086b576040517f08c379a000000000000000000000000000000000000000000000000000000000815260040161086290612bf6565b60405180910390fd5b6000610875610540565b600560007f000000000000000000000000000000000000000000000000000000000000000073ffffffffffffffffffffffffffffffffffffffff1673ffffffffffffffffffffffffffffffffffffffff16815260200190815260200160002054836108e09190612c16565b6108ea9190612c87565b905060006108f6610540565b600560007f000000000000000000000000000000000000000000000000000000000000000073ffffffffffffffffffffffffffffffffffffffff1673ffffffffffffffffffffffffffffffffffffffff16815260200190815260200160002054846109619190612c16565b61096b9190612c87565b905082600860003373ffffffffffffffffffffffffffffffffffffffff1673ffffffffffffffffffffffffffffffffffffffff16815260200190815260200160002060008282546109bc9190612cb8565b925050819055506109cd33846122cc565b7f000000000000000000000000000000000000000000000000000000000000000073ffffffffffffffffffffffffffffffffffffffff1663a9059cbb33846040518363ffffffff1660e01b8152600401610a28929190612cec565b6020604051808303816000875af1158015610a47573d6000803e3d6000fd5b505050506040513d601f19601f82011682018060405250810190610a6b9190612d41565b507f000000000000000000000000000000000000000000000000000000000000000073ffffffffffffffffffffffffffffffffffffffff1663a9059cbb33836040518363ffffffff1660e01b8152600401610ac7929190612cec565b6020604051808303816000875af1158015610ae6573d6000803e3d6000fd5b505050506040513d601f19601f82011682018060405250810190610b0a9190612d41565b5081600560007f000000000000000000000000000000000000000000000000000000000000000073ffffffffffffffffffffffffffffffffffffffff1673ffffffffffffffffffffffffffffffffffffffff1681526020019081526020016000206000828254610b7a9190612cb8565b9250508190555080600560007f000000000000000000000000000000000000000000000000000000000000000073ffffffffffffffffffffffffffffffffffffffff1673ffffffffffffffffffffffffffffffffffffffff1681526020019081526020016000206000828254610bf09190612cb8565b925050819055507fbad053f5b243c76f17611a28d4554167bd09e3491be13032dd4af620e8e22872338383604051610c2a93929190612d6e565b60405180910390a1505050565b808214610c79576040517f08c379a0000000000000000000000000000000000000000000000000000000008152600401610c7090612e17565b60405180910390fd5b808214610cbb576040517f08c379a0000000000000000000000000000000000000000000000000000000008152600401610cb290612e83565b60405180910390fd5b600082118015610ccb5750600081115b610d0a576040517f08c379a0000000000000000000000000000000000000000000000000000000008152600401610d0190612eef565b60405180910390fd5b600073ffffffffffffffffffffffffffffffffffffffff163373ffffffffffffffffffffffffffffffffffffffff1603610d4357600080fd5b817f000000000000000000000000000000000000000000000000000000000000000073ffffffffffffffffffffffffffffffffffffffff166370a08231336040518263ffffffff1660e01b8152600401610d9d919061298a565b602060405180830381865afa158015610dba573d6000803e3d6000fd5b505050506040513d601f19601f82011682018060405250810190610dde9190612f24565b1015610e1f576040517f08c379a0000000000000000000000000000000000000000000000000000000008152600401610e1690612f9d565b60405180910390fd5b807f000000000000000000000000000000000000000000000000000000000000000073ffffffffffffffffffffffffffffffffffffffff166370a08231336040518263ffffffff1660e01b8152600401610e79919061298a565b602060405180830381865afa158015610e96573d6000803e3d6000fd5b505050506040513d601f19601f82011682018060405250810190610eba9190612f24565b1015610efb576040517f08c379a0000000000000000000000000000000000000000000000000000000008152600401610ef290613009565b60405180910390fd5b60007f000000000000000000000000000000000000000000000000000000000000000073ffffffffffffffffffffffffffffffffffffffff166370a08231306040518263ffffffff1660e01b8152600401610f56919061298a565b602060405180830381865afa158015610f73573d6000803e3d6000fd5b505050506040513d601f19601f82011682018060405250810190610f979190612f24565b905060007f000000000000000000000000000000000000000000000000000000000000000073ffffffffffffffffffffffffffffffffffffffff166370a08231306040518263ffffffff1660e01b8152600401610ff4919061298a565b602060405180830381865afa158015611011573d6000803e3d6000fd5b505050506040513d601f19601f820116820180604052508101906110359190612f24565b9050600560007f000000000000000000000000000000000000000000000000000000000000000073ffffffffffffffffffffffffffffffffffffffff1673ffffffffffffffffffffffffffffffffffffffff1681526020019081526020016000205482101580156111055750600560007f000000000000000000000000000000000000000000000000000000000000000073ffffffffffffffffffffffffffffffffffffffff1673ffffffffffffffffffffffffffffffffffffffff168152602001908152602001600020548110155b611144576040517f08c379a000000000000000000000000000000000000000000000000000000000815260040161113b9061304f565b60405180910390fd5b7f000000000000000000000000000000000000000000000000000000000000000073ffffffffffffffffffffffffffffffffffffffff1663095ea7b330866040518363ffffffff1660e01b815260040161119f929190612cec565b6020604051808303816000875af11580156111be573d6000803e3d6000fd5b505050506040513d601f19601f820116820180604052508101906111e29190612d41565b507f000000000000000000000000000000000000000000000000000000000000000073ffffffffffffffffffffffffffffffffffffffff1663095ea7b330856040518363ffffffff1660e01b815260040161123e929190612cec565b6020604051808303816000875af115801561125d573d6000803e3d6000fd5b505050506040513d601f19601f820116820180604052508101906112819190612d41565b507f000000000000000000000000000000000000000000000000000000000000000073ffffffffffffffffffffffffffffffffffffffff166323b872dd3330876040518463ffffffff1660e01b81526004016112df9392919061306f565b6020604051808303816000875af11580156112fe573d6000803e3d6000fd5b505050506040513d601f19601f820116820180604052508101906113229190612d41565b507f000000000000000000000000000000000000000000000000000000000000000073ffffffffffffffffffffffffffffffffffffffff166323b872dd3330866040518463ffffffff1660e01b81526004016113809392919061306f565b6020604051808303816000875af115801561139f573d6000803e3d6000fd5b505050506040513d601f19601f820116820180604052508101906113c39190612d41565b5083600560007f000000000000000000000000000000000000000000000000000000000000000073ffffffffffffffffffffffffffffffffffffffff1673ffffffffffffffffffffffffffffffffffffffff16815260200190815260200160002060008282546114339190612b0a565b9250508190555082600560007f000000000000000000000000000000000000000000000000000000000000000073ffffffffffffffffffffffffffffffffffffffff1673ffffffffffffffffffffffffffffffffffffffff16815260200190815260200160002060008282546114a99190612b0a565b925050819055506000600560007f000000000000000000000000000000000000000000000000000000000000000073ffffffffffffffffffffffffffffffffffffffff1673ffffffffffffffffffffffffffffffffffffffff16815260200190815260200160002054600560007f000000000000000000000000000000000000000000000000000000000000000073ffffffffffffffffffffffffffffffffffffffff1673ffffffffffffffffffffffffffffffffffffffff1681526020019081526020016000205461157c9190612c16565b61165a600560007f000000000000000000000000000000000000000000000000000000000000000073ffffffffffffffffffffffffffffffffffffffff1673ffffffffffffffffffffffffffffffffffffffff16815260200190815260200160002054876115ea9190612c16565b600560007f000000000000000000000000000000000000000000000000000000000000000073ffffffffffffffffffffffffffffffffffffffff1673ffffffffffffffffffffffffffffffffffffffff16815260200190815260200160002054876116559190612c16565b612499565b611662610540565b61166c9190612c16565b6116769190612c87565b905061168233826124b2565b80600860003373ffffffffffffffffffffffffffffffffffffffff1673ffffffffffffffffffffffffffffffffffffffff16815260200190815260200160002060008282546116d19190612b0a565b925050819055507fb27d7e2f60a2022903d49f653fbb6f06e4fd14fd5f2291655fb7c499645ba61433868660405161170b93929190612d6e565b60405180910390a15050505050565b600080611725611df9565b9050600061173382866117cc565b905083811015611778576040517f08c379a000000000000000000000000000000000000000000000000000000000815260040161176f90613118565b60405180910390fd5b6117858286868403611e01565b60019250505092915050565b60008061179c611df9565b90506117a9818585612056565b600191505092915050565b60076020528060005260406000206000915090505481565b6000600160008473ffffffffffffffffffffffffffffffffffffffff1673ffffffffffffffffffffffffffffffffffffffff16815260200190815260200160002060008373ffffffffffffffffffffffffffffffffffffffff1673ffffffffffffffffffffffffffffffffffffffff16815260200190815260200160002054905092915050565b8173ffffffffffffffffffffffffffffffffffffffff168373ffffffffffffffffffffffffffffffffffffffff16036118c1576040517f08c379a00000000000000000000000000000000000000000000000000000000081526004016118b890613184565b60405180910390fd5b7f000000000000000000000000000000000000000000000000000000000000000073ffffffffffffffffffffffffffffffffffffffff168373ffffffffffffffffffffffffffffffffffffffff16148061196657507f000000000000000000000000000000000000000000000000000000000000000073ffffffffffffffffffffffffffffffffffffffff168373ffffffffffffffffffffffffffffffffffffffff16145b6119a5576040517f08c379a000000000000000000000000000000000000000000000000000000000815260040161199c906131f0565b60405180910390fd5b7f000000000000000000000000000000000000000000000000000000000000000073ffffffffffffffffffffffffffffffffffffffff168273ffffffffffffffffffffffffffffffffffffffff161480611a4a57507f000000000000000000000000000000000000000000000000000000000000000073ffffffffffffffffffffffffffffffffffffffff168273ffffffffffffffffffffffffffffffffffffffff16145b611a89576040517f08c379a0000000000000000000000000000000000000000000000000000000008152600401611a80906131f0565b60405180910390fd5b60008111611acc576040517f08c379a0000000000000000000000000000000000000000000000000000000008152600401611ac39061325c565b60405180910390fd5b6000611ad9848484612608565b9050808373ffffffffffffffffffffffffffffffffffffffff166370a08231306040518263ffffffff1660e01b8152600401611b15919061298a565b602060405180830381865afa158015611b32573d6000803e3d6000fd5b505050506040513d601f19601f82011682018060405250810190611b569190612f24565b1015611b97576040517f08c379a0000000000000000000000000000000000000000000000000000000008152600401611b8e906132ee565b60405180910390fd5b60008111611bda576040517f08c379a0000000000000000000000000000000000000000000000000000000008152600401611bd19061335a565b60405180910390fd5b8373ffffffffffffffffffffffffffffffffffffffff166323b872dd3330856040518463ffffffff1660e01b8152600401611c179392919061306f565b6020604051808303816000875af1158015611c36573d6000803e3d6000fd5b505050506040513d601f19601f82011682018060405250810190611c5a9190612d41565b508273ffffffffffffffffffffffffffffffffffffffff1663a9059cbb33836040518363ffffffff1660e01b8152600401611c96929190612cec565b6020604051808303816000875af1158015611cb5573d6000803e3d6000fd5b505050506040513d601f19601f82011682018060405250810190611cd99190612d41565b5081600560008673ffffffffffffffffffffffffffffffffffffffff1673ffffffffffffffffffffffffffffffffffffffff1681526020019081526020016000206000828254611d299190612b0a565b9250508190555080600560008573ffffffffffffffffffffffffffffffffffffffff1673ffffffffffffffffffffffffffffffffffffffff1681526020019081526020016000206000828254611d7f9190612cb8565b9250508190555080827ff5bd27d3832b5529727e05d6f865d200eb0562024376ec83e4c9740fca6647a7338787604051611dbb9392919061337a565b60405180910390a350505050565b60066020528060005260406000206000915090505481565b60056020528060005260406000206000915090505481565b600033905090565b600073ffffffffffffffffffffffffffffffffffffffff168373ffffffffffffffffffffffffffffffffffffffff1603611e70576040517f08c379a0000000000000000000000000000000000000000000000000000000008152600401611e6790613423565b60405180910390fd5b600073ffffffffffffffffffffffffffffffffffffffff168273ffffffffffffffffffffffffffffffffffffffff1603611edf576040517f08c379a0000000000000000000000000000000000000000000000000000000008152600401611ed6906134b5565b60405180910390fd5b80600160008573ffffffffffffffffffffffffffffffffffffffff1673ffffffffffffffffffffffffffffffffffffffff16815260200190815260200160002060008473ffffffffffffffffffffffffffffffffffffffff1673ffffffffffffffffffffffffffffffffffffffff168152602001908152602001600020819055508173ffffffffffffffffffffffffffffffffffffffff168373ffffffffffffffffffffffffffffffffffffffff167f8c5be1e5ebec7d5bd14f71427d1e84f3dd0314c0f7b2291e5b200ac8c7c3b92583604051611fbd91906128d6565b60405180910390a3505050565b6000611fd684846117cc565b90507fffffffffffffffffffffffffffffffffffffffffffffffffffffffffffffffff81146120505781811015612042576040517f08c379a000000000000000000000000000000000000000000000000000000000815260040161203990613521565b60405180910390fd5b61204f8484848403611e01565b5b50505050565b600073ffffffffffffffffffffffffffffffffffffffff168373ffffffffffffffffffffffffffffffffffffffff16036120c5576040517f08c379a00000000000000000000000000000000000000000000000000000000081526004016120bc906135b3565b60405180910390fd5b600073ffffffffffffffffffffffffffffffffffffffff168273ffffffffffffffffffffffffffffffffffffffff1603612134576040517f08c379a000000000000000000000000000000000000000000000000000000000815260040161212b90613645565b60405180910390fd5b61213f8383836126cf565b60008060008573ffffffffffffffffffffffffffffffffffffffff1673ffffffffffffffffffffffffffffffffffffffff168152602001908152602001600020549050818110156121c5576040517f08c379a00000000000000000000000000000000000000000000000000000000081526004016121bc906136d7565b60405180910390fd5b8181036000808673ffffffffffffffffffffffffffffffffffffffff1673ffffffffffffffffffffffffffffffffffffffff16815260200190815260200160002081905550816000808573ffffffffffffffffffffffffffffffffffffffff1673ffffffffffffffffffffffffffffffffffffffff168152602001908152602001600020600082825401925050819055508273ffffffffffffffffffffffffffffffffffffffff168473ffffffffffffffffffffffffffffffffffffffff167fddf252ad1be2c89b69c2b068fc378daa952ba7f163c4a11628f55a4df523b3ef846040516122b391906128d6565b60405180910390a36122c68484846126d4565b50505050565b600073ffffffffffffffffffffffffffffffffffffffff168273ffffffffffffffffffffffffffffffffffffffff160361233b576040517f08c379a000000000000000000000000000000000000000000000000000000000815260040161233290613769565b60405180910390fd5b612347826000836126cf565b60008060008473ffffffffffffffffffffffffffffffffffffffff1673ffffffffffffffffffffffffffffffffffffffff168152602001908152602001600020549050818110156123cd576040517f08c379a00000000000000000000000000000000000000000000000000000000081526004016123c4906137fb565b60405180910390fd5b8181036000808573ffffffffffffffffffffffffffffffffffffffff1673ffffffffffffffffffffffffffffffffffffffff1681526020019081526020016000208190555081600260008282540392505081905550600073ffffffffffffffffffffffffffffffffffffffff168373ffffffffffffffffffffffffffffffffffffffff167fddf252ad1be2c89b69c2b068fc378daa952ba7f163c4a11628f55a4df523b3ef8460405161248091906128d6565b60405180910390a3612494836000846126d4565b505050565b60008183106124a857816124aa565b825b905092915050565b600073ffffffffffffffffffffffffffffffffffffffff168273ffffffffffffffffffffffffffffffffffffffff1603612521576040517f08c379a000000000000000000000000000000000000000000000000000000000815260040161251890613867565b60405180910390fd5b61252d600083836126cf565b806002600082825461253f9190612b0a565b92505081905550806000808473ffffffffffffffffffffffffffffffffffffffff1673ffffffffffffffffffffffffffffffffffffffff168152602001908152602001600020600082825401925050819055508173ffffffffffffffffffffffffffffffffffffffff16600073ffffffffffffffffffffffffffffffffffffffff167fddf252ad1be2c89b69c2b068fc378daa952ba7f163c4a11628f55a4df523b3ef836040516125f091906128d6565b60405180910390a3612604600083836126d4565b5050565b600080600560008673ffffffffffffffffffffffffffffffffffffffff1673ffffffffffffffffffffffffffffffffffffffff1681526020019081526020016000205490506000600560008673ffffffffffffffffffffffffffffffffffffffff1673ffffffffffffffffffffffffffffffffffffffff1681526020019081526020016000205490506000818361269f9190612c16565b905084836126ad9190612b0a565b816126b89190612c87565b826126c39190612cb8565b93505050509392505050565b505050565b505050565b600081519050919050565b600082825260208201905092915050565b60005b838110156127135780820151818401526020810190506126f8565b60008484015250505050565b6000601f19601f8301169050919050565b600061273b826126d9565b61274581856126e4565b93506127558185602086016126f5565b61275e8161271f565b840191505092915050565b600060208201905081810360008301526127838184612730565b905092915050565b600080fd5b600073ffffffffffffffffffffffffffffffffffffffff82169050919050565b60006127bb82612790565b9050919050565b6127cb816127b0565b81146127d657600080fd5b50565b6000813590506127e8816127c2565b92915050565b6000819050919050565b612801816127ee565b811461280c57600080fd5b50565b60008135905061281e816127f8565b92915050565b6000806040838503121561283b5761283a61278b565b5b6000612849858286016127d9565b925050602061285a8582860161280f565b9150509250929050565b60008115159050919050565b61287981612864565b82525050565b60006020820190506128946000830184612870565b92915050565b6000602082840312156128b0576128af61278b565b5b60006128be848285016127d9565b91505092915050565b6128d0816127ee565b82525050565b60006020820190506128eb60008301846128c7565b92915050565b60008060006060848603121561290a5761290961278b565b5b6000612918868287016127d9565b9350506020612929868287016127d9565b925050604061293a8682870161280f565b9150509250925092565b600060ff82169050919050565b61295a81612944565b82525050565b60006020820190506129756000830184612951565b92915050565b612984816127b0565b82525050565b600060208201905061299f600083018461297b565b92915050565b60006040820190506129ba60008301856128c7565b6129c760208301846128c7565b9392505050565b6000602082840312156129e4576129e361278b565b5b60006129f28482850161280f565b91505092915050565b60008060408385031215612a1257612a1161278b565b5b6000612a208582860161280f565b9250506020612a318582860161280f565b9150509250929050565b60008060408385031215612a5257612a5161278b565b5b6000612a60858286016127d9565b9250506020612a71858286016127d9565b9150509250929050565b7f4e487b7100000000000000000000000000000000000000000000000000000000600052602260045260246000fd5b60006002820490506001821680612ac257607f821691505b602082108103612ad557612ad4612a7b565b5b50919050565b7f4e487b7100000000000000000000000000000000000000000000000000000000600052601160045260246000fd5b6000612b15826127ee565b9150612b20836127ee565b9250828201905080821115612b3857612b37612adb565b5b92915050565b7f696e73756666696369656e74206c697175696469747900000000000000000000600082015250565b6000612b746016836126e4565b9150612b7f82612b3e565b602082019050919050565b60006020820190508181036000830152612ba381612b67565b9050919050565b7f696e76616c6964206c6971756964697479000000000000000000000000000000600082015250565b6000612be06011836126e4565b9150612beb82612baa565b602082019050919050565b60006020820190508181036000830152612c0f81612bd3565b9050919050565b6000612c21826127ee565b9150612c2c836127ee565b9250828202612c3a816127ee565b91508282048414831517612c5157612c50612adb565b5b5092915050565b7f4e487b7100000000000000000000000000000000000000000000000000000000600052601260045260246000fd5b6000612c92826127ee565b9150612c9d836127ee565b925082612cad57612cac612c58565b5b828204905092915050565b6000612cc3826127ee565b9150612cce836127ee565b9250828203905081811115612ce657612ce5612adb565b5b92915050565b6000604082019050612d01600083018561297b565b612d0e60208301846128c7565b9392505050565b612d1e81612864565b8114612d2957600080fd5b50565b600081519050612d3b81612d15565b92915050565b600060208284031215612d5757612d5661278b565b5b6000612d6584828501612d2c565b91505092915050565b6000606082019050612d83600083018661297b565b612d9060208301856128c7565b612d9d60408301846128c7565b949350505050565b7f7468652074776f20746f6b656e73206d7573742068617665207468652073616d60008201527f652076616c756500000000000000000000000000000000000000000000000000602082015250565b6000612e016027836126e4565b9150612e0c82612da5565b604082019050919050565b60006020820190508181036000830152612e3081612df4565b9050919050565b7f416d6f756e74206d75737420626520657175616c000000000000000000000000600082015250565b6000612e6d6014836126e4565b9150612e7882612e37565b602082019050919050565b60006020820190508181036000830152612e9c81612e60565b9050919050565b7f56616c756573206d7573742062652067726561746572207468616e2000000000600082015250565b6000612ed9601c836126e4565b9150612ee482612ea3565b602082019050919050565b60006020820190508181036000830152612f0881612ecc565b9050919050565b600081519050612f1e816127f8565b92915050565b600060208284031215612f3a57612f3961278b565b5b6000612f4884828501612f0f565b91505092915050565b7f6e6f7420656e6f75676820746f6b656e41000000000000000000000000000000600082015250565b6000612f876011836126e4565b9150612f9282612f51565b602082019050919050565b60006020820190508181036000830152612fb681612f7a565b9050919050565b7f6e6f7420656e6f75676820746f6b656e42000000000000000000000000000000600082015250565b6000612ff36011836126e4565b9150612ffe82612fbd565b602082019050919050565b6000602082019050818103600083015261302281612fe6565b9050919050565b50565b60006130396000836126e4565b915061304482613029565b600082019050919050565b600060208201905081810360008301526130688161302c565b9050919050565b6000606082019050613084600083018661297b565b613091602083018561297b565b61309e60408301846128c7565b949350505050565b7f45524332303a2064656372656173656420616c6c6f77616e63652062656c6f7760008201527f207a65726f000000000000000000000000000000000000000000000000000000602082015250565b60006131026025836126e4565b915061310d826130a6565b604082019050919050565b60006020820190508181036000830152613131816130f5565b9050919050565b7f746f6b656e7320617265207468652073616d6500000000000000000000000000600082015250565b600061316e6013836126e4565b915061317982613138565b602082019050919050565b6000602082019050818103600083015261319d81613161565b9050919050565b7f746f6b656e206973206e6f7420696e20706f6f6c000000000000000000000000600082015250565b60006131da6014836126e4565b91506131e5826131a4565b602082019050919050565b60006020820190508181036000830152613209816131cd565b9050919050565b7f77652063616e7420737761702061203020616d6f756e74000000000000000000600082015250565b60006132466017836126e4565b915061325182613210565b602082019050919050565b6000602082019050818103600083015261327581613239565b9050919050565b7f696e73756666696369656e7420636f6e74726163742062616c616e6365206f6660008201527f206f757470757420746f6b656e00000000000000000000000000000000000000602082015250565b60006132d8602d836126e4565b91506132e38261327c565b604082019050919050565b60006020820190508181036000830152613307816132cb565b9050919050565b7f7a65726f206f757470757420616d6f756e740000000000000000000000000000600082015250565b60006133446012836126e4565b915061334f8261330e565b602082019050919050565b6000602082019050818103600083015261337381613337565b9050919050565b600060608201905061338f600083018661297b565b61339c602083018561297b565b6133a9604083018461297b565b949350505050565b7f45524332303a20617070726f76652066726f6d20746865207a65726f2061646460008201527f7265737300000000000000000000000000000000000000000000000000000000602082015250565b600061340d6024836126e4565b9150613418826133b1565b604082019050919050565b6000602082019050818103600083015261343c81613400565b9050919050565b7f45524332303a20617070726f766520746f20746865207a65726f20616464726560008201527f7373000000000000000000000000000000000000000000000000000000000000602082015250565b600061349f6022836126e4565b91506134aa82613443565b604082019050919050565b600060208201905081810360008301526134ce81613492565b9050919050565b7f45524332303a20696e73756666696369656e7420616c6c6f77616e6365000000600082015250565b600061350b601d836126e4565b9150613516826134d5565b602082019050919050565b6000602082019050818103600083015261353a816134fe565b9050919050565b7f45524332303a207472616e736665722066726f6d20746865207a65726f20616460008201527f6472657373000000000000000000000000000000000000000000000000000000602082015250565b600061359d6025836126e4565b91506135a882613541565b604082019050919050565b600060208201905081810360008301526135cc81613590565b9050919050565b7f45524332303a207472616e7366657220746f20746865207a65726f206164647260008201527f6573730000000000000000000000000000000000000000000000000000000000602082015250565b600061362f6023836126e4565b915061363a826135d3565b604082019050919050565b6000602082019050818103600083015261365e81613622565b9050919050565b7f45524332303a207472616e7366657220616d6f756e742065786365656473206260008201527f616c616e63650000000000000000000000000000000000000000000000000000602082015250565b60006136c16026836126e4565b91506136cc82613665565b604082019050919050565b600060208201905081810360008301526136f0816136b4565b9050919050565b7f45524332303a206275726e2066726f6d20746865207a65726f2061646472657360008201527f7300000000000000000000000000000000000000000000000000000000000000602082015250565b60006137536021836126e4565b915061375e826136f7565b604082019050919050565b6000602082019050818103600083015261378281613746565b9050919050565b7f45524332303a206275726e20616d6f756e7420657863656564732062616c616e60008201527f6365000000000000000000000000000000000000000000000000000000000000602082015250565b60006137e56022836126e4565b91506137f082613789565b604082019050919050565b60006020820190508181036000830152613814816137d8565b9050919050565b7f45524332303a206d696e7420746f20746865207a65726f206164647265737300600082015250565b6000613851601f836126e4565b915061385c8261381b565b602082019050919050565b6000602082019050818103600083015261388081613844565b905091905056fea264697066735822122095337400b56df20d64bf9b6e9781c70a0602876f7290f817418269d8dbe4ead764736f6c63430008120033a2646970667358221220742328b8186cff5feb0fb90e5f0fcda5e42659ab834786c969eb6fd170c2b5db64736f6c63430008120033",
    "linkReferences": {},
    "deployedLinkReferences": {}
}